{
  "contractName": "Ethmoji",
  "abi": [
    {
      "constant": true,
      "inputs": [],
      "name": "totalPayments",
      "outputs": [
        {
          "name": "",
          "type": "uint256"
        }
      ],
      "payable": false,
      "stateMutability": "view",
      "type": "function"
    },
    {
      "constant": false,
      "inputs": [
        {
          "name": "_to",
          "type": "address"
        },
        {
          "name": "_tokenId",
          "type": "uint256"
        }
      ],
      "name": "approve",
      "outputs": [],
      "payable": false,
      "stateMutability": "nonpayable",
      "type": "function"
    },
    {
      "constant": false,
      "inputs": [
        {
          "name": "_to",
          "type": "address"
        }
      ],
      "name": "payout",
      "outputs": [],
      "payable": false,
      "stateMutability": "nonpayable",
      "type": "function"
    },
    {
      "constant": true,
      "inputs": [],
      "name": "totalSupply",
      "outputs": [
        {
          "name": "",
          "type": "uint256"
        }
      ],
      "payable": false,
      "stateMutability": "view",
      "type": "function"
    },
    {
      "constant": false,
      "inputs": [
        {
          "name": "_price",
          "type": "uint256"
        }
      ],
      "name": "setGlobalCompositionFee",
      "outputs": [],
      "payable": false,
      "stateMutability": "nonpayable",
      "type": "function"
    },
    {
      "constant": true,
      "inputs": [
        {
          "name": "_tokenIds",
          "type": "uint256[]"
        }
      ],
      "name": "getTotalCompositionPrice",
      "outputs": [
        {
          "name": "",
          "type": "uint256"
        }
      ],
      "payable": false,
      "stateMutability": "view",
      "type": "function"
    },
    {
      "constant": true,
      "inputs": [
        {
          "name": "_tokenId",
          "type": "uint256"
        }
      ],
      "name": "getCompositionPrice",
      "outputs": [
        {
          "name": "",
          "type": "uint256"
        }
      ],
      "payable": false,
      "stateMutability": "view",
      "type": "function"
    },
    {
      "constant": true,
      "inputs": [
        {
          "name": "",
          "type": "bytes32"
        }
      ],
      "name": "layerHashesToOwner",
      "outputs": [
        {
          "name": "",
          "type": "address"
        }
      ],
      "payable": false,
      "stateMutability": "view",
      "type": "function"
    },
    {
      "constant": true,
      "inputs": [
        {
          "name": "_tokenId",
          "type": "uint256"
        }
      ],
      "name": "approvedFor",
      "outputs": [
        {
          "name": "",
          "type": "address"
        }
      ],
      "payable": false,
      "stateMutability": "view",
      "type": "function"
    },
    {
      "constant": true,
      "inputs": [
        {
          "name": "",
          "type": "uint256"
        }
      ],
      "name": "tokenIdToCompositionPrice",
      "outputs": [
        {
          "name": "",
          "type": "uint256"
        }
      ],
      "payable": false,
      "stateMutability": "view",
      "type": "function"
    },
    {
      "constant": true,
      "inputs": [
        {
          "name": "",
          "type": "uint256"
        },
        {
          "name": "",
          "type": "uint256"
        }
      ],
      "name": "tokenIdToLayers",
      "outputs": [
        {
          "name": "",
          "type": "uint256"
        }
      ],
      "payable": false,
      "stateMutability": "view",
      "type": "function"
    },
    {
      "constant": true,
      "inputs": [
        {
          "name": "_owner",
          "type": "address"
        }
      ],
      "name": "tokensOf",
      "outputs": [
        {
          "name": "",
          "type": "uint256[]"
        }
      ],
      "payable": false,
      "stateMutability": "view",
      "type": "function"
    },
    {
      "constant": false,
      "inputs": [],
      "name": "withdrawPayments",
      "outputs": [],
      "payable": false,
      "stateMutability": "nonpayable",
      "type": "function"
    },
    {
      "constant": true,
      "inputs": [
        {
          "name": "_tokenId",
          "type": "uint256"
        }
      ],
      "name": "ownerOf",
      "outputs": [
        {
          "name": "",
          "type": "address"
        }
      ],
      "payable": false,
      "stateMutability": "view",
      "type": "function"
    },
    {
      "constant": true,
      "inputs": [
        {
          "name": "_owner",
          "type": "address"
        }
      ],
      "name": "balanceOf",
      "outputs": [
        {
          "name": "",
          "type": "uint256"
        }
      ],
      "payable": false,
      "stateMutability": "view",
      "type": "function"
    },
    {
      "constant": true,
      "inputs": [],
      "name": "owner",
      "outputs": [
        {
          "name": "",
          "type": "address"
        }
      ],
      "payable": false,
      "stateMutability": "view",
      "type": "function"
    },
    {
      "constant": true,
      "inputs": [],
      "name": "NAME",
      "outputs": [
        {
          "name": "",
          "type": "string"
        }
      ],
      "payable": false,
      "stateMutability": "view",
      "type": "function"
    },
    {
      "constant": true,
      "inputs": [
        {
          "name": "_tokenId",
          "type": "uint256"
        }
      ],
      "name": "getTokenLayers",
      "outputs": [
        {
          "name": "",
          "type": "uint256[]"
        }
      ],
      "payable": false,
      "stateMutability": "view",
      "type": "function"
    },
    {
      "constant": false,
      "inputs": [
        {
          "name": "_tokenId",
          "type": "uint256"
        }
      ],
      "name": "takeOwnership",
      "outputs": [],
      "payable": false,
      "stateMutability": "nonpayable",
      "type": "function"
    },
    {
      "constant": true,
      "inputs": [],
      "name": "minCompositionFee",
      "outputs": [
        {
          "name": "",
          "type": "uint256"
        }
      ],
      "payable": false,
      "stateMutability": "view",
      "type": "function"
    },
    {
      "constant": true,
      "inputs": [],
      "name": "MAX_LAYERS",
      "outputs": [
        {
          "name": "",
          "type": "uint8"
        }
      ],
      "payable": false,
      "stateMutability": "view",
      "type": "function"
    },
    {
      "constant": false,
      "inputs": [
        {
          "name": "_tokenId",
          "type": "uint256"
        },
        {
          "name": "_price",
          "type": "uint256"
        }
      ],
      "name": "setCompositionPrice",
      "outputs": [],
      "payable": false,
      "stateMutability": "nonpayable",
      "type": "function"
    },
    {
      "constant": true,
      "inputs": [
        {
          "name": "",
          "type": "address"
        }
      ],
      "name": "payments",
      "outputs": [
        {
          "name": "",
          "type": "uint256"
        }
      ],
      "payable": false,
      "stateMutability": "view",
      "type": "function"
    },
    {
      "constant": false,
      "inputs": [
        {
          "name": "newOwner",
          "type": "address"
        }
      ],
      "name": "transferOwnership",
      "outputs": [],
      "payable": false,
      "stateMutability": "nonpayable",
      "type": "function"
    },
    {
      "constant": true,
      "inputs": [
        {
          "name": "_tokenIds",
          "type": "uint256[]"
        }
      ],
      "name": "isUniqueComposition",
      "outputs": [
        {
          "name": "",
          "type": "bool"
        }
      ],
      "payable": false,
      "stateMutability": "view",
      "type": "function"
    },
    {
      "constant": true,
      "inputs": [],
      "name": "SYMBOL",
      "outputs": [
        {
          "name": "",
          "type": "string"
        }
      ],
      "payable": false,
      "stateMutability": "view",
      "type": "function"
    },
    {
      "constant": true,
      "inputs": [
        {
          "name": "",
          "type": "address"
        }
      ],
      "name": "addressToAvatar",
      "outputs": [
        {
          "name": "",
          "type": "uint256"
        }
      ],
      "payable": false,
      "stateMutability": "view",
      "type": "function"
    },
    {
      "anonymous": false,
      "inputs": [
        {
          "indexed": false,
          "name": "tokenId",
          "type": "uint256"
        }
      ],
      "name": "BaseTokenCreated",
      "type": "event"
    },
    {
      "anonymous": false,
      "inputs": [
        {
          "indexed": false,
          "name": "tokenId",
          "type": "uint256"
        },
        {
          "indexed": false,
          "name": "layers",
          "type": "uint256[]"
        },
        {
          "indexed": true,
          "name": "owner",
          "type": "address"
        }
      ],
      "name": "CompositionTokenCreated",
      "type": "event"
    },
    {
      "anonymous": false,
      "inputs": [
        {
          "indexed": false,
          "name": "tokenId",
          "type": "uint256"
        },
        {
          "indexed": false,
          "name": "price",
          "type": "uint256"
        },
        {
          "indexed": true,
          "name": "owner",
          "type": "address"
        }
      ],
      "name": "CompositionPriceChanged",
      "type": "event"
    },
    {
      "anonymous": false,
      "inputs": [
        {
          "indexed": true,
          "name": "previousOwner",
          "type": "address"
        },
        {
          "indexed": true,
          "name": "newOwner",
          "type": "address"
        }
      ],
      "name": "OwnershipTransferred",
      "type": "event"
    },
    {
      "anonymous": false,
      "inputs": [
        {
          "indexed": true,
          "name": "_from",
          "type": "address"
        },
        {
          "indexed": true,
          "name": "_to",
          "type": "address"
        },
        {
          "indexed": false,
          "name": "_tokenId",
          "type": "uint256"
        }
      ],
      "name": "Transfer",
      "type": "event"
    },
    {
      "anonymous": false,
      "inputs": [
        {
          "indexed": true,
          "name": "_owner",
          "type": "address"
        },
        {
          "indexed": true,
          "name": "_approved",
          "type": "address"
        },
        {
          "indexed": false,
          "name": "_tokenId",
          "type": "uint256"
        }
      ],
      "name": "Approval",
      "type": "event"
    },
    {
      "constant": false,
      "inputs": [
        {
          "name": "_to",
          "type": "address"
        },
        {
          "name": "_compositionPrice",
          "type": "uint256"
        }
      ],
      "name": "mintTo",
      "outputs": [],
      "payable": false,
      "stateMutability": "nonpayable",
      "type": "function"
    },
    {
      "constant": false,
      "inputs": [
        {
          "name": "_tokenIds",
          "type": "uint256[]"
        },
        {
          "name": "_compositionPrice",
          "type": "uint256"
        }
      ],
      "name": "compose",
      "outputs": [],
      "payable": true,
      "stateMutability": "payable",
      "type": "function"
    },
    {
      "constant": true,
      "inputs": [],
      "name": "name",
      "outputs": [
        {
          "name": "",
          "type": "string"
        }
      ],
      "payable": false,
      "stateMutability": "pure",
      "type": "function"
    },
    {
      "constant": true,
      "inputs": [],
      "name": "symbol",
      "outputs": [
        {
          "name": "",
          "type": "string"
        }
      ],
      "payable": false,
      "stateMutability": "pure",
      "type": "function"
    },
    {
      "constant": false,
      "inputs": [
        {
          "name": "_tokenId",
          "type": "uint256"
        }
      ],
      "name": "setAvatar",
      "outputs": [],
      "payable": false,
      "stateMutability": "nonpayable",
      "type": "function"
    },
    {
      "constant": true,
      "inputs": [
        {
          "name": "_owner",
          "type": "address"
        }
      ],
      "name": "getAvatar",
      "outputs": [
        {
          "name": "",
          "type": "uint256"
        }
      ],
      "payable": false,
      "stateMutability": "view",
      "type": "function"
    },
    {
      "constant": false,
      "inputs": [
        {
          "name": "_to",
          "type": "address"
        },
        {
          "name": "_tokenId",
          "type": "uint256"
        }
      ],
      "name": "transfer",
      "outputs": [],
      "payable": false,
      "stateMutability": "nonpayable",
      "type": "function"
    }
  ],
  "bytecode": "0x606060405266038d7ea4c6800060085533600560006101000a81548173ffffffffffffffffffffffffffffffffffffffff021916908373ffffffffffffffffffffffffffffffffffffffff160217905550612d218061005f6000396000f3006060604052600436106101ab576000357c0100000000000000000000000000000000000000000000000000000000900463ffffffff1680625b4487146101b057806303083883146101d957806306fdde0314610231578063095ea7b3146102bf5780630b7e9c441461030157806318160ddd1461033a5780631875ccf3146103635780631983111d146103865780631f89e911146103f457806326487dd21461042b5780632a6dd48f1461049257806338e50d3c146104f55780633f27afa71461052c578063449a52f81461056c5780635a3f2672146105ae5780636103d70b1461063c5780636352211e1461065157806370a08231146106b45780638da5cb5b1461070157806395d89b4114610756578063a3f4df7e146107e4578063a9059cbb14610872578063aae07cd0146108b4578063b2e6ceeb1461092c578063c73ec2eb1461094f578063c829b0e314610978578063ce8ac033146109a7578063d5e0d8fc146109f4578063df0bcf4d14610a20578063e2982c2114610a43578063f2fde38b14610a90578063f6843f3914610ac9578063f76f8d7814610b3b578063ff4843dc14610bc9575b600080fd5b34156101bb57600080fd5b6101c3610c16565b6040518082815260200191505060405180910390f35b61022f600480803590602001908201803590602001908080602002602001604051908101604052809392919081815260200183836020028082843782019150505050505091908035906020019091905050610c1c565b005b341561023c57600080fd5b610244610cb6565b6040518080602001828103825283818151815260200191508051906020019080838360005b83811015610284578082015181840152602081019050610269565b50505050905090810190601f1680156102b15780820380516001836020036101000a031916815260200191505b509250505060405180910390f35b34156102ca57600080fd5b6102ff600480803573ffffffffffffffffffffffffffffffffffffffff16906020019091908035906020019091905050610cf9565b005b341561030c57600080fd5b610338600480803573ffffffffffffffffffffffffffffffffffffffff16906020019091905050610e8c565b005b341561034557600080fd5b61034d610f42565b6040518082815260200191505060405180910390f35b341561036e57600080fd5b6103846004808035906020019091905050610f4b565b005b341561039157600080fd5b6103de600480803590602001908201803590602001908080602002602001604051908101604052809392919081815260200183836020028082843782019150505050505091905050610fb1565b6040518082815260200191505060405180910390f35b34156103ff57600080fd5b6104156004808035906020019091905050611056565b6040518082815260200191505060405180910390f35b341561043657600080fd5b610450600480803560001916906020019091905050611073565b604051808273ffffffffffffffffffffffffffffffffffffffff1673ffffffffffffffffffffffffffffffffffffffff16815260200191505060405180910390f35b341561049d57600080fd5b6104b360048080359060200190919050506110a6565b604051808273ffffffffffffffffffffffffffffffffffffffff1673ffffffffffffffffffffffffffffffffffffffff16815260200191505060405180910390f35b341561050057600080fd5b61051660048080359060200190919050506110e3565b6040518082815260200191505060405180910390f35b341561053757600080fd5b61055660048080359060200190919080359060200190919050506110fb565b6040518082815260200191505060405180910390f35b341561057757600080fd5b6105ac600480803573ffffffffffffffffffffffffffffffffffffffff1690602001909190803590602001909190505061112c565b005b34156105b957600080fd5b6105e5600480803573ffffffffffffffffffffffffffffffffffffffff169060200190919050506111c0565b6040518080602001828103825283818151815260200191508051906020019060200280838360005b8381101561062857808201518184015260208101905061060d565b505050509050019250505060405180910390f35b341561064757600080fd5b61064f61125d565b005b341561065c57600080fd5b610672600480803590602001909190505061137c565b604051808273ffffffffffffffffffffffffffffffffffffffff1673ffffffffffffffffffffffffffffffffffffffff16815260200191505060405180910390f35b34156106bf57600080fd5b6106eb600480803573ffffffffffffffffffffffffffffffffffffffff169060200190919050506113fa565b6040518082815260200191505060405180910390f35b341561070c57600080fd5b610714611446565b604051808273ffffffffffffffffffffffffffffffffffffffff1673ffffffffffffffffffffffffffffffffffffffff16815260200191505060405180910390f35b341561076157600080fd5b61076961146c565b6040518080602001828103825283818151815260200191508051906020019080838360005b838110156107a957808201518184015260208101905061078e565b50505050905090810190601f1680156107d65780820380516001836020036101000a031916815260200191505b509250505060405180910390f35b34156107ef57600080fd5b6107f76114af565b6040518080602001828103825283818151815260200191508051906020019080838360005b8381101561083757808201518184015260208101905061081c565b50505050905090810190601f1680156108645780820380516001836020036101000a031916815260200191505b509250505060405180910390f35b341561087d57600080fd5b6108b2600480803573ffffffffffffffffffffffffffffffffffffffff169060200190919080359060200190919050506114e8565b005b34156108bf57600080fd5b6108d56004808035906020019091905050611595565b6040518080602001828103825283818151815260200191508051906020019060200280838360005b838110156109185780820151818401526020810190506108fd565b505050509050019250505060405180910390f35b341561093757600080fd5b61094d6004808035906020019091905050611606565b005b341561095a57600080fd5b610962611631565b6040518082815260200191505060405180910390f35b341561098357600080fd5b61098b611637565b604051808260ff1660ff16815260200191505060405180910390f35b34156109b257600080fd5b6109de600480803573ffffffffffffffffffffffffffffffffffffffff1690602001909190505061163c565b6040518082815260200191505060405180910390f35b34156109ff57600080fd5b610a1e6004808035906020019091908035906020019091905050611685565b005b3415610a2b57600080fd5b610a4160048080359060200190919050506116e8565b005b3415610a4e57600080fd5b610a7a600480803573ffffffffffffffffffffffffffffffffffffffff16906020019091905050611773565b6040518082815260200191505060405180910390f35b3415610a9b57600080fd5b610ac7600480803573ffffffffffffffffffffffffffffffffffffffff1690602001909190505061178b565b005b3415610ad457600080fd5b610b216004808035906020019082018035906020019080806020026020016040519081016040528093929190818152602001838360200280828437820191505050505050919050506118e3565b604051808215151515815260200191505060405180910390f35b3415610b4657600080fd5b610b4e611982565b6040518080602001828103825283818151815260200191508051906020019080838360005b83811015610b8e578082015181840152602081019050610b73565b50505050905090810190601f168015610bbb5780820380516001836020036101000a031916815260200191505b509250505060405180910390f35b3415610bd457600080fd5b610c00600480803573ffffffffffffffffffffffffffffffffffffffff169060200190919050506119bb565b6040518082815260200191505060405180910390f35b60075481565b600082610c28816118e3565b1515610c3357600080fd5b610c3d84846119d3565b610c6733610c4a336111c0565b6000815181101515610c5857fe5b90602001906020020151611e43565b600091505b83518260ff161015610cb057610ca3610c9e858460ff16815181101515610c8f57fe5b9060200190602002015161137c565b611ed4565b8180600101925050610c6c565b50505050565b610cbe612bb6565b6040805190810160405280600781526020017f4574686d6f6a6900000000000000000000000000000000000000000000000000815250905090565b6000813373ffffffffffffffffffffffffffffffffffffffff16610d1c8261137c565b73ffffffffffffffffffffffffffffffffffffffff16141515610d3e57600080fd5b610d478361137c565b91508173ffffffffffffffffffffffffffffffffffffffff168473ffffffffffffffffffffffffffffffffffffffff1614151515610d8457600080fd5b6000610d8f846110a6565b73ffffffffffffffffffffffffffffffffffffffff16141580610dc9575060008473ffffffffffffffffffffffffffffffffffffffff1614155b15610e8657836002600085815260200190815260200160002060006101000a81548173ffffffffffffffffffffffffffffffffffffffff021916908373ffffffffffffffffffffffffffffffffffffffff1602179055508373ffffffffffffffffffffffffffffffffffffffff168273ffffffffffffffffffffffffffffffffffffffff167f8c5be1e5ebec7d5bd14f71427d1e84f3dd0314c0f7b2291e5b200ac8c7c3b925856040518082815260200191505060405180910390a35b50505050565b600560009054906101000a900473ffffffffffffffffffffffffffffffffffffffff1673ffffffffffffffffffffffffffffffffffffffff163373ffffffffffffffffffffffffffffffffffffffff16141515610ee857600080fd5b8073ffffffffffffffffffffffffffffffffffffffff166108fc3073ffffffffffffffffffffffffffffffffffffffff16319081150290604051600060405180830381858888f193505050501515610f3f57600080fd5b50565b60008054905090565b600560009054906101000a900473ffffffffffffffffffffffffffffffffffffffff1673ffffffffffffffffffffffffffffffffffffffff163373ffffffffffffffffffffffffffffffffffffffff16141515610fa757600080fd5b8060088190555050565b6000806000809150600090505b835181101561103557610fe78482815181101515610fd857fe5b90602001906020020151611fe7565b1515610ff257600080fd5b6110268260096000878581518110151561100857fe5b9060200190602002015181526020019081526020016000205461200a565b91508080600101915050610fbe565b61104a611043836069612028565b6064612063565b91508192505050919050565b600060096000838152602001908152602001600020549050919050565b600b6020528060005260406000206000915054906101000a900473ffffffffffffffffffffffffffffffffffffffff1681565b60006002600083815260200190815260200160002060009054906101000a900473ffffffffffffffffffffffffffffffffffffffff169050919050565b60096020528060005260406000206000915090505481565b600a6020528160005260406000208181548110151561111657fe5b9060005260206000209001600091509150505481565b600560009054906101000a900473ffffffffffffffffffffffffffffffffffffffff1673ffffffffffffffffffffffffffffffffffffffff163373ffffffffffffffffffffffffffffffffffffffff1614151561118857600080fd5b611192828261207e565b6111bc8261119f846111c0565b60008151811015156111ad57fe5b90602001906020020151611e43565b5050565b6111c8612bca565b600360008373ffffffffffffffffffffffffffffffffffffffff1673ffffffffffffffffffffffffffffffffffffffff16815260200190815260200160002080548060200260200160405190810160405280929190818152602001828054801561125157602002820191906000526020600020905b81548152602001906001019080831161123d575b50505050509050919050565b600080339150600660008373ffffffffffffffffffffffffffffffffffffffff1673ffffffffffffffffffffffffffffffffffffffff168152602001908152602001600020549050600081141515156112b557600080fd5b803073ffffffffffffffffffffffffffffffffffffffff1631101515156112db57600080fd5b6112f08160075461221f90919063ffffffff16565b6007819055506000600660008473ffffffffffffffffffffffffffffffffffffffff1673ffffffffffffffffffffffffffffffffffffffff168152602001908152602001600020819055508173ffffffffffffffffffffffffffffffffffffffff166108fc829081150290604051600060405180830381858888f19350505050151561137857fe5b5050565b6000806001600084815260200190815260200160002060009054906101000a900473ffffffffffffffffffffffffffffffffffffffff169050600073ffffffffffffffffffffffffffffffffffffffff168173ffffffffffffffffffffffffffffffffffffffff16141515156113f157600080fd5b80915050919050565b6000600360008373ffffffffffffffffffffffffffffffffffffffff1673ffffffffffffffffffffffffffffffffffffffff168152602001908152602001600020805490509050919050565b600560009054906101000a900473ffffffffffffffffffffffffffffffffffffffff1681565b611474612bb6565b6040805190810160405280600381526020017f454d4a0000000000000000000000000000000000000000000000000000000000815250905090565b6040805190810160405280600781526020017f4574686d6f6a690000000000000000000000000000000000000000000000000081525081565b803373ffffffffffffffffffffffffffffffffffffffff166115098261137c565b73ffffffffffffffffffffffffffffffffffffffff1614151561152b57600080fd5b81600c60003373ffffffffffffffffffffffffffffffffffffffff1673ffffffffffffffffffffffffffffffffffffffff16815260200190815260200160002054141561157c5761157b33612238565b5b6115868383612280565b6115908383611e43565b505050565b61159d612bca565b600a60008381526020019081526020016000208054806020026020016040519081016040528092919081815260200182805480156115fa57602002820191906000526020600020905b8154815260200190600101908083116115e6575b50505050509050919050565b61161033826122d3565b151561161b57600080fd5b61162e6116278261137c565b3383612314565b50565b60085481565b606481565b6000600c60008373ffffffffffffffffffffffffffffffffffffffff1673ffffffffffffffffffffffffffffffffffffffff168152602001908152602001600020549050919050565b813373ffffffffffffffffffffffffffffffffffffffff166116a68261137c565b73ffffffffffffffffffffffffffffffffffffffff161415156116c857600080fd5b60085482101515156116d957600080fd5b6116e3838361245d565b505050565b803373ffffffffffffffffffffffffffffffffffffffff166117098261137c565b73ffffffffffffffffffffffffffffffffffffffff1614151561172b57600080fd5b81600c60003373ffffffffffffffffffffffffffffffffffffffff1673ffffffffffffffffffffffffffffffffffffffff168152602001908152602001600020819055505050565b60066020528060005260406000206000915090505481565b600560009054906101000a900473ffffffffffffffffffffffffffffffffffffffff1673ffffffffffffffffffffffffffffffffffffffff163373ffffffffffffffffffffffffffffffffffffffff161415156117e757600080fd5b600073ffffffffffffffffffffffffffffffffffffffff168173ffffffffffffffffffffffffffffffffffffffff161415151561182357600080fd5b8073ffffffffffffffffffffffffffffffffffffffff16600560009054906101000a900473ffffffffffffffffffffffffffffffffffffffff1673ffffffffffffffffffffffffffffffffffffffff167f8be0079c531659141344cd1fd0a4f28419497f9722a3daafe3b4186f6b6457e060405160405180910390a380600560006101000a81548173ffffffffffffffffffffffffffffffffffffffff021916908373ffffffffffffffffffffffffffffffffffffffff16021790555050565b600080600b60008460405180828051906020019060200280838360005b8381101561191b578082015181840152602081019050611900565b5050505090500191505060405180910390206000191660001916815260200190815260200160002060009054906101000a900473ffffffffffffffffffffffffffffffffffffffff1673ffffffffffffffffffffffffffffffffffffffff16149050919050565b6040805190810160405280600381526020017f454d4a000000000000000000000000000000000000000000000000000000000081525081565b600c6020528060005260406000206000915090505481565b60006119dd612bca565b60008060006119ea612bca565b6000806000808b6119fa816118e3565b1515611a0557600080fd5b611a0e8d610fb1565b9a50600073ffffffffffffffffffffffffffffffffffffffff163373ffffffffffffffffffffffffffffffffffffffff1614158015611a4d57508a3410155b1515611a5857600080fd5b606460ff16604051805910611a6a5750595b9080825280602002602001820160405250995060009850600097505b8c518860ff161015611c84578c8860ff16815181101515611aa357fe5b906020019060200201519650611ab887611fe7565b1515611ac357600080fd5b600a6000888152602001908152602001600020805480602002602001604051908101604052809291908181526020018280548015611b2057602002820191906000526020600020905b815481526020019060010190808311611b0c575b50505050509550600094505b85518560ff161015611c0e57600093505b89518460ff161015611bc157858560ff16815181101515611b5a57fe5b906020019060200201518a8560ff16815181101515611b7557fe5b9060200190602002015114151515611b8c57600080fd5b60008a8560ff16815181101515611b9f57fe5b906020019060200201511415611bb457611bc1565b8380600101945050611b3d565b858560ff16815181101515611bd257fe5b906020019060200201518a8a60ff16815181101515611bed57fe5b90602001906020020181815250506001890198508480600101955050611b2c565b600073ffffffffffffffffffffffffffffffffffffffff16611c2f8861137c565b73ffffffffffffffffffffffffffffffffffffffff1614151515611c5257600080fd5b611c77611c5e8861137c565b600960008a8152602001908152602001600020546124cf565b8780600101985050611a86565b611c8c612583565b9250611c988a8a6125a5565b600a60008581526020019081526020016000209080519060200190611cbe929190612bde565b5033600b60008f60405180828051906020019060200280838360005b83811015611cf5578082015181840152602081019050611cda565b5050505090500191505060405180910390206000191660001916815260200190815260200160002060006101000a81548173ffffffffffffffffffffffffffffffffffffffff021916908373ffffffffffffffffffffffffffffffffffffffff160217905550611d653384612640565b8a341115611d8457611d77348c61221f565b9150611d8333836124cf565b5b3373ffffffffffffffffffffffffffffffffffffffff167f8258990f4da6775c9379703a14a2d112f3131e6b3a3840d1f6c25ccfe1051b9d84600a600087815260200190815260200160002060405180838152602001806020018281038252838181548152602001915080548015611e1b57602002820191906000526020600020905b815481526020019060010190808311611e07575b5050935050505060405180910390a2611e34838d61245d565b50505050505050505050505050565b6000600c60008473ffffffffffffffffffffffffffffffffffffffff1673ffffffffffffffffffffffffffffffffffffffff168152602001908152602001600020541415611ed05780600c60008473ffffffffffffffffffffffffffffffffffffffff1673ffffffffffffffffffffffffffffffffffffffff168152602001908152602001600020819055505b5050565b6000600660008373ffffffffffffffffffffffffffffffffffffffff1673ffffffffffffffffffffffffffffffffffffffff16815260200190815260200160002054905060008114158015611f405750803073ffffffffffffffffffffffffffffffffffffffff163110155b15611fe357611f5a8160075461221f90919063ffffffff16565b6007819055506000600660008473ffffffffffffffffffffffffffffffffffffffff1673ffffffffffffffffffffffffffffffffffffffff168152602001908152602001600020819055508173ffffffffffffffffffffffffffffffffffffffff166108fc829081150290604051600060405180830381858888f193505050501515611fe257fe5b5b5050565b600080600a60008481526020019081526020016000208054905014159050919050565b600080828401905083811015151561201e57fe5b8091505092915050565b600080600084141561203d576000915061205c565b828402905082848281151561204e57fe5b0414151561205857fe5b8091505b5092915050565b600080828481151561207157fe5b0490508091505092915050565b6000600560009054906101000a900473ffffffffffffffffffffffffffffffffffffffff1673ffffffffffffffffffffffffffffffffffffffff163373ffffffffffffffffffffffffffffffffffffffff161415156120dc57600080fd5b60085482101515156120ed57600080fd5b6120f5612583565b90506121018382612640565b60206040519081016040528082815250600a6000838152602001908152602001600020906001612132929190612c2b565b5082600b6000602060405190810160405280858152506040518082600160200280838360005b83811015612173578082015181840152602081019050612158565b5050505090500191505060405180910390206000191660001916815260200190815260200160002060006101000a81548173ffffffffffffffffffffffffffffffffffffffff021916908373ffffffffffffffffffffffffffffffffffffffff1602179055507f3f5bdceccefc96a1f5b67e0c030e1f5f27d4f940582f4114ee08d3599912e216816040518082815260200191505060405180910390a161221a818361245d565b505050565b600082821115151561222d57fe5b818303905092915050565b6000600c60008373ffffffffffffffffffffffffffffffffffffffff1673ffffffffffffffffffffffffffffffffffffffff1681526020019081526020016000208190555050565b803373ffffffffffffffffffffffffffffffffffffffff166122a18261137c565b73ffffffffffffffffffffffffffffffffffffffff161415156122c357600080fd5b6122ce338484612314565b505050565b60008273ffffffffffffffffffffffffffffffffffffffff166122f5836110a6565b73ffffffffffffffffffffffffffffffffffffffff1614905092915050565b600073ffffffffffffffffffffffffffffffffffffffff168273ffffffffffffffffffffffffffffffffffffffff161415151561235057600080fd5b6123598161137c565b73ffffffffffffffffffffffffffffffffffffffff168273ffffffffffffffffffffffffffffffffffffffff161415151561239357600080fd5b8273ffffffffffffffffffffffffffffffffffffffff166123b38261137c565b73ffffffffffffffffffffffffffffffffffffffff161415156123d557600080fd5b6123df83826126da565b6123e983826127c3565b6123f38282612a4b565b8173ffffffffffffffffffffffffffffffffffffffff168373ffffffffffffffffffffffffffffffffffffffff167fddf252ad1be2c89b69c2b068fc378daa952ba7f163c4a11628f55a4df523b3ef836040518082815260200191505060405180910390a3505050565b8060096000848152602001908152602001600020819055503373ffffffffffffffffffffffffffffffffffffffff167f372883ed096f3aca24c33c36571b41f60a645cb114b5590f319e2e1c2606db6e8383604051808381526020018281526020019250505060405180910390a25050565b61252181600660008573ffffffffffffffffffffffffffffffffffffffff1673ffffffffffffffffffffffffffffffffffffffff1681526020019081526020016000205461200a90919063ffffffff16565b600660008473ffffffffffffffffffffffffffffffffffffffff1673ffffffffffffffffffffffffffffffffffffffff168152602001908152602001600020819055506125798160075461200a90919063ffffffff16565b6007819055505050565b60006125a06001612592610f42565b61200a90919063ffffffff16565b905090565b6125ad612bca565b6125b5612bca565b60008360ff166040518059106125c85750595b90808252806020026020018201604052509150600090505b8360ff168160ff16101561263557848160ff168151811015156125ff57fe5b90602001906020020151828260ff1681518110151561261a57fe5b906020019060200201818152505080806001019150506125e0565b819250505092915050565b600073ffffffffffffffffffffffffffffffffffffffff168273ffffffffffffffffffffffffffffffffffffffff161415151561267c57600080fd5b6126868282612a4b565b8173ffffffffffffffffffffffffffffffffffffffff1660007fddf252ad1be2c89b69c2b068fc378daa952ba7f163c4a11628f55a4df523b3ef836040518082815260200191505060405180910390a35050565b8173ffffffffffffffffffffffffffffffffffffffff166126fa8261137c565b73ffffffffffffffffffffffffffffffffffffffff1614151561271c57600080fd5b60006002600083815260200190815260200160002060006101000a81548173ffffffffffffffffffffffffffffffffffffffff021916908373ffffffffffffffffffffffffffffffffffffffff16021790555060008273ffffffffffffffffffffffffffffffffffffffff167f8c5be1e5ebec7d5bd14f71427d1e84f3dd0314c0f7b2291e5b200ac8c7c3b925836040518082815260200191505060405180910390a35050565b60008060008473ffffffffffffffffffffffffffffffffffffffff166127e88561137c565b73ffffffffffffffffffffffffffffffffffffffff1614151561280a57600080fd5b6004600085815260200190815260200160002054925061283c600161282e876113fa565b61221f90919063ffffffff16565b9150600360008673ffffffffffffffffffffffffffffffffffffffff1673ffffffffffffffffffffffffffffffffffffffff1681526020019081526020016000208281548110151561288a57fe5b906000526020600020900154905060006001600086815260200190815260200160002060006101000a81548173ffffffffffffffffffffffffffffffffffffffff021916908373ffffffffffffffffffffffffffffffffffffffff16021790555080600360008773ffffffffffffffffffffffffffffffffffffffff1673ffffffffffffffffffffffffffffffffffffffff1681526020019081526020016000208481548110151561293857fe5b9060005260206000209001819055506000600360008773ffffffffffffffffffffffffffffffffffffffff1673ffffffffffffffffffffffffffffffffffffffff1681526020019081526020016000208381548110151561299557fe5b906000526020600020900181905550600360008673ffffffffffffffffffffffffffffffffffffffff1673ffffffffffffffffffffffffffffffffffffffff1681526020019081526020016000208054809190600190036129f69190612c78565b5060006004600086815260200190815260200160002081905550826004600083815260200190815260200160002081905550612a3e600160005461221f90919063ffffffff16565b6000819055505050505050565b60008073ffffffffffffffffffffffffffffffffffffffff166001600084815260200190815260200160002060009054906101000a900473ffffffffffffffffffffffffffffffffffffffff1673ffffffffffffffffffffffffffffffffffffffff16141515612aba57600080fd5b826001600084815260200190815260200160002060006101000a81548173ffffffffffffffffffffffffffffffffffffffff021916908373ffffffffffffffffffffffffffffffffffffffff160217905550612b15836113fa565b9050600360008473ffffffffffffffffffffffffffffffffffffffff1673ffffffffffffffffffffffffffffffffffffffff1681526020019081526020016000208054806001018281612b689190612ca4565b916000526020600020900160008490919091505550806004600084815260200190815260200160002081905550612bab600160005461200a90919063ffffffff16565b600081905550505050565b602060405190810160405280600081525090565b602060405190810160405280600081525090565b828054828255906000526020600020908101928215612c1a579160200282015b82811115612c19578251825591602001919060010190612bfe565b5b509050612c279190612cd0565b5090565b828054828255906000526020600020908101928215612c67579160200282015b82811115612c66578251825591602001919060010190612c4b565b5b509050612c749190612cd0565b5090565b815481835581811511612c9f57818360005260206000209182019101612c9e9190612cd0565b5b505050565b815481835581811511612ccb57818360005260206000209182019101612cca9190612cd0565b5b505050565b612cf291905b80821115612cee576000816000905550600101612cd6565b5090565b905600a165627a7a7230582017817f6d128523c6a1b61f331fdc335c1656c7727be343a88a838b9226fef4e40029",
  "source": "pragma solidity ^0.4.18;\n\nimport \"./Composable.sol\";\nimport \"zeppelin-solidity/contracts/math/SafeMath.sol\";\n\n/**\n * @title Ethmoji\n * Ehtmoji - a contract to mint and compose original emojis\n */\n\ncontract Ethmoji is Composable {\n    using SafeMath for uint256;\n\n    string public constant NAME = \"Ethmoji\";\n    string public constant SYMBOL = \"EMJ\";\n\n    // Mapping from address to emoji representing avatar\n    mapping (address => uint256) public addressToAvatar;\n    \n    /**\n    * @dev Mints a base token to an address with a given composition price\n    * @param _to address of the future owner of the token\n    * @param _compositionPrice uint256 composition price for the new token\n    */\n    function mintTo(address _to, uint256 _compositionPrice) public onlyOwner {\n        Composable.mintTo(_to, _compositionPrice);\n        _setAvatarIfNoAvatarIsSet(_to, tokensOf(_to)[0]);\n    }\n\n    /**\n    * @dev Mints a composition emoji\n    * @param _tokenIds uint256[] the array of layers that will make up the composition\n    */\n    function compose(uint256[] _tokenIds,  uint256 _compositionPrice) public payable onlyUniqueComposition(_tokenIds) {\n        Composable.compose(_tokenIds, _compositionPrice);\n        _setAvatarIfNoAvatarIsSet(msg.sender, tokensOf(msg.sender)[0]);\n        \n        \n        // Immediately pay out to layer owners\n        for (uint8 i = 0; i < _tokenIds.length; i++) { \n            _withdrawTo(ownerOf(_tokenIds[i]));\n        }\n    }\n    \n// ----- EXPOSED METHODS --------------------------------------------------------------------------\n\n    /**\n    * @dev returns the name ETHMOJI\n    * @return string ETHMOJI\n    */\n    function name() public pure returns (string) {\n        return NAME;\n    }\n\n    /**\n    * @dev returns the name EMJ\n    * @return string EMJ\n    */\n    function symbol() public pure returns (string) {\n        return SYMBOL;\n    }\n\n    /**\n    * @dev sets avatar for an address\n    * @param _tokenId uint256 token ID\n    */\n    function setAvatar(uint256 _tokenId) public onlyOwnerOf(_tokenId) {\n        addressToAvatar[msg.sender] = _tokenId;\n    }\n\n    /**\n    * @dev returns the ID representing the avatar of the address \n    * @param _owner address\n    * @return uint256 token ID of the avatar associated with that address \n    */\n    function getAvatar(address _owner) public view returns(uint256) { \n        return addressToAvatar[_owner];\n    }\n\n    /**\n    * @dev transfer ownership of token. keeps track of avatar logic\n    * @param _to address to whom the token is being transferred to\n    * @param _tokenId uint256 the ID of the token being transferred\n    */\n    function transfer(address _to, uint256 _tokenId) public onlyOwnerOf(_tokenId) {\n        // If the transferred token was previous owner's avatar, remove it\n        if (addressToAvatar[msg.sender] == _tokenId) { \n            _removeAvatar(msg.sender);\n        }\n\n        ERC721Token.transfer(_to, _tokenId);\n        _setAvatarIfNoAvatarIsSet(_to, _tokenId);\n    }\n\n// ----- PRIVATE FUNCTIONS ------------------------------------------------------------------------\n\n    /**\n    * @dev sets avatar if no avatar was previously set\n    * @param _owner address of the new vatara owner\n    * @param _tokenId uint256 token ID\n    */\n    function _setAvatarIfNoAvatarIsSet(address _owner, uint256 _tokenId) private {\n        if (addressToAvatar[_owner] == 0) { \n            addressToAvatar[_owner] = _tokenId;\n        }\n    }\n\n    /**\n    * @dev removes avatar for address\n    * @param _owner address of the avatar owner \n    */\n    function _removeAvatar(address _owner) private {\n        addressToAvatar[_owner] = 0;\n    }\n\n    /**\n    * @dev withdraw accumulated balance to the payee\n    * @param _payee address to which to withdraw to\n    */\n    function _withdrawTo(address _payee) private {\n        uint256 payment = payments[_payee];\n\n        if (payment != 0 && this.balance >= payment) { \n            totalPayments = totalPayments.sub(payment);\n            payments[_payee] = 0;\n\n            assert(_payee.send(payment));\n        }\n    }\n}",
  "sourcePath": "/Users/fmc/Desktop/Projects/ethmoji-contracts/contracts/Ethmoji.sol",
  "compiler": {
    "name": "solc",
    "version": "0.4.19+commit.c4cbbb05.Emscripten.clang"
  },
  "schemaVersion": "1.0.1",
  "updatedAt": "2018-03-07T23:14:39.964Z"
}